:020000040800F2
:100000000050002009420008E13C0008E33C0008E1
:10001000E53C0008E73C0008E93C0008000000005F
:10002000000000000000000000000000912E000809
:10003000EB3C000800000000592F0008ED3C0008D0
:100040005142000851420008514200085142000844
:100050005142000851420008514200085142000834
:100060005142000851420008514200085142000824
:100070005142000851420008514200085142000814
:100080005142000851420008514200085142000804
:10009000F13C00085142000851420008514200085A
:1000A00051420008FD3C000851420008514200083E
:1000B00051420008514200085142000851420008D4
:1000C00051420008514200085142000851420008C4
:1000D00051420008514200085142000851420008B4
:1000E000514200085142000851420008000000003F
:1000F0000000000000000000000000000000000000
:0C01000000000000000000005FF808F1A3
:10010C0010B5054C237833B9044B13B10448AFF345
:10011C0000800123237010BD5C0100200000000052
:10012C00C44200080C4B43B10C4810B50C49AFF35A
:10013C0000800C48036823B910BD0A48036833B922
:10014C007047094B002BF7D0BDE810401847064B01
:10015C00002BF5D0184700BF00000000C442000877
:10016C00600100205C010020000000002DE9F0413E
:10017C00044686B0002860D090F8E93303F0FF0203
:10018C001BB980F8E82303F0E7FB254603236E46F2
:10019C0055F8100B84F8E93300F0E6FB0FCD0FC6D1
:1001AC002B6804F10408336098E80E00206800F016
:1001BC00CBFB0021206800F0E1FB00212346224606
:1001CC000126084604F1100582F8281091860131A9
:1001DC000F2982F8296082F82B009063D063106499
:1001EC0002F12002F0D10022174683F808229A86E9
:1001FC0001320F2A83F8097283F80B72C3F8187254
:10020C00C3F81C72C3F8207203F12003EDD16E46C3
:10021C000FCD0FC62B68336098E80E00206800F0F5
:10022C00AFFB012384F82470206884F8E93300F0D4
:10023C0079FE002006B0BDE8F0810120FAE790F8C5
:10024C00E83310B5012B04460ED0012180F8E813D9
:10025C0003F0AFFC206800F063FE206800F07BFB2D
:10026C00002084F8E80310BD022010BD90F8E823AC
:10027C0010B5012A04460BD0012280F8E82384F83B
:10028C002410006800F046FE002084F8E80310BD3E
:10029C00022010BD38B5044648B2002801F07F0595
:1002AC00B5BF04EB451104EB4111283101F5027186
:1002BC00C00F0D704870CB7094F8E8330A61012BB5
:1002CC0009D00123206884F8E83300F06DFB00208E
:1002DC0084F8E80338BD022038BD4BB2002B01F086
:1002EC007F02B5BF00EB421100EB4111283101F543
:1002FC000271DB0F10B50A704B7090F8E8330446AE
:10030C00012B09D0012380F8E833006800F0C0FC11
:10031C00002084F8E80310BD022010BD70B504461F
:10032C0001F07F0670012518C5F820320023C5F8AE
:10033C00243285F8093294F8E833C5F81C22012BD5
:10034C0085F808620CD0012300F50270211884F89E
:10035C00E833206800F000FE002084F8E80370BD4C
:10036C00022070BD01F07F0100EB4111B1F82402B5
:10037C00704770B5044601F07F06700125182B6498
:10038C0000236B640123EA6394F8E82385F8293091
:10039C009A4285F828600AD02830211884F8E8336E
:1003AC00206800F0D9FD002084F8E80370BD02201D
:1003BC0070BD00002DE9F3470446006800F0B4FD61
:1003CC00000400F19480206800F0AEFD41050FD5CB
:1003DC0022682046B2F8443023F480631B041B0CC3
:1003EC00A2F8443003F0EFFA00212046FFF73EFF5D
:1003FC00206800F099FD470408D52268B2F8443013
:10040C0023F480431B041B0CA2F84430206800F03A
:10041C008BFD860408D52268B2F8443023F40053CF
:10042C001B041B0CA2F84430206800F07DFDC504B1
:10043C0018D522682046B2F8403023F004031B0480
:10044C001B0CA2F840304FF43D43A2F8403003F0AF
:10045C00D7FA2268B2F8443023F480531B041B0CE7
:10046C00A2F84430206800F05FFD00051DD520681F
:10047C00B0F8443023F400631B041B0CA0F8443088
:10048C00B0F840309BB243F00803A0F84030B0F80D
:10049C0040309BB243F00403A0F8403000F044FD20
:1004AC00C10402D4204603F09BFA206800F03CFD06
:1004BC0082050BD522682046B2F8443023F4007331
:1004CC001B041B0CA2F8443003F079FA206800F0EE
:1004DC002BFDC30508D52268B2F8443023F4807391
:1004EC001B041B0CA2F8443002B0BDE8F0870023BB
:1004FC00C34FDFF81083DFF81093ADF80430ADF87C
:10050C0006302068B0F844309BB2ADF804301B04C0
:10051C007FF559AFBDF8045015F00F0540F0AB80D6
:10052C00BDF80410038811F010019BB226D13B409A
:10053C000380B0F8503094F828209BB203EBC20330
:10054C0000EB4300D0F80434E26BC3F3090363649B
:10055C001344E363204603F02BFA94F82430002B69
:10056C00CFD0226C002ACCD194F82430216843F0EF
:10057C008003A1F84C3084F82420C2E7ADF8063093
:10058C00BDF806301A051FD5B0F8503094F8082283
:10059C009BB203EBC20300EB4303D3F80C34B4F867
:1005AC000C22C3F30903C4F8243204F57B7100F068
:1005BC00A7FD22682046138823F070031B051B0D32
:1005CC00138003F0E7F99CE7BDF806301B0498D5BF
:1005DC00038823F070031B051B0D0380B0F850300B
:1005EC0094F808229BB203EBC20300EB4303D3F84D
:1005FC000C34C3F30903C4F8243263B1B4F80C22ED
:10060C00D4F81C1200F07CFDD4F81C32D4F824224F
:10061C001344C4F81C320021204603F0C1F92268AF
:10062C00D4F81852B2F850103E2D89B201F10601DF
:10063C0002F5806017D9C5F34F13EE0604BF03F122
:10064C00FF339BB249EA83239BB240F811301388E5
:10065C009BB203EA080383F4405343F4004343F092
:10066C00800313804DE7C5F34F03ED0744BF0133FF
:10067C009BB29B02E8E730F825309BB2ADF8063010
:10068C00BDF8063019043DD530F825304FEA451A2F
:10069C0023F070031B051B0D20F8253004EB0A0119
:1006AC0091F81232002B6FD1B0F8503091F808222B
:1006BC009BB203EBC20300EB4303D3F80C64C6F309
:1006CC00090636B1B1F80C223346D1F81C1200F0F1
:1006DC0017FD04EB0A01D1F82432D1F81C22334463
:1006EC00C1F82432D1F820323244C1F81C221BB19B
:1006FC00D1F8180286427DD2A2449AF808122046FC
:10070C0003F04EF9BDF806301A067FF5FAAE2068F4
:10071C006E0130F82530A1199BB23B4020F82530F2
:10072C0091F832300235002B70D1B0F8503091F87E
:10073C0028209BB203EBC20300EB4303D3F8043431
:10074C0004EB4515C3F309036B601BB18A8DC96BB0
:10075C0000F0F0FB22682644B2F8503096F82810CE
:10076C009BB203EBC10302EB4303D3F80424F36BFA
:10077C00C2F3090272641A44336CF2632046002BF4
:10078C007AD103F015F9BCE691F8083230F8232041
:10079C00DB0012F4804FB0F8502092B2134400EBFF
:1007AC0043031DD0D3F80464C6F3090636B13346AF
:1007BC00B1F80E22D1F81C1200F0A2FC04EB0A03D3
:1007CC0093F80812226832F8213023F0F0031B054D
:1007DC001B0D43F4004343F0C00322F8213078E7AB
:1007EC00D3F80C64C6F30906002EE7D03346B1F8F3
:1007FC001022DFE791F808122046FFF78FFD81E702
:10080C000F8FFFFF8FBFFFFF0080FFFF91F8283095
:10081C0030F82320DB0012F0400FB0F8502092B2D9
:10082C00134400EB43031CD0D3F8043404EB4515FC
:10083C00C3F309036B601BB1CA8DC96B00F07AFB63
:10084C00A31993F82810226832F8213023F0F00312
:10085C001B051B0D43F4404343F0800322F8213069
:10086C0078E7D3F80C3404EB4515C3F309036B603C
:10087C00002BE5D00A8EE0E7FFF77BFD41E600BFD9
:10088C00012238B54BB2002B01F07F05B5BF00EB50
:10089C00451100EB4111283101F50271DB0FEDB26E
:1008AC008A700D704B7090F8E833044693420ED06A
:1008BC0080F8E823006800F0B9FA25B904F57B71DB
:1008CC00206800F035FB002084F8E80338BD0220D6
:1008DC0038BD38B500244BB2002B01F07F02B5BFF8
:1008EC0000EB421100EB4111283101F50271DB0FD5
:1008FC008C700A704B7090F8E8330546012B09D0C8
:10090C00012380F8E833006800F0C2FA85F8E84368
:10091C00204638BD022038BD11F0800F1BBF01F0FE
:10092C007F0100EB411000EB4110283008BF00F5AF
:10093C0002701AB982728380002070470122C38032
:10094C001B0C82720381F7E784B001A880E80E00CB
:10095C0004B000207047B0F840309BB243F43D43E4
:10096C00A0F8403000207047B0F8403023F47453A6
:10097C005B045B0CA0F840300020704700207047EF
:10098C0084B010B503AC84E80E00BDE81040012320
:10099C00A0F84030002304B0A0F84030A0F8443058
:1009AC00A0F850301846704770B5CB780A78032BF6
:1009BC000FD8DFE803F00264505930F8223023F4EA
:1009CC00EC4323F070031B041B0C43F4007320F85E
:1009DC00223040F60F730C7830F8242044F4004594
:1009EC0045F080051A402A4320F824208A7A0D7895
:1009FC00002A40F098804C788A88002C4AD0B0F8B5
:100A0C0050405208A4B204EBC50400EB440452005D
:100A1C00C4F800240C7830F82420520608D530F89D
:100A2C002420134043F4004343F0C00320F8243047
:100A3C000A7830F8223023F4E04323F040031B04FF
:100A4C001B0C83F0200343F4004343F0800320F895
:100A5C002230002070BD30F8223023F4EC4323F018
:100A6C0070031B041B0CB2E730F8223023F4EC4368
:100A7C0023F070031B041B0C43F4C063A7E730F88E
:100A8C00223023F4EC4323F070031B041B0C43F4BF
:100A9C0080639CE7B0F8503052089BB203EBC5035F
:100AAC000433520000F5806444F81320B0F8502051
:100ABC000B780D6992B202EBC3023E2D02F10602D5
:100ACC0029D9C5F34F16EB0604BF06F1FF339EB2CE
:100ADC006E4B43EA86239BB244F812300A7830F806
:100AEC0022305E040BD530F8223023F0F0031B05C6
:100AFC001B0D43F4404343F0800320F822300A7866
:100B0C0030F8223023F4804323F070031B041B0CB9
:100B1C0083F4405397E7C5F34F03ED0744BF01330C
:100B2C009BB29B02D7E730F8252022F4F87212050D
:100B3C00120D42F4014242F0800220F82520B0F858
:100B4C0050200C7892B202EBC402CC8800F5806580
:100B5C006408640045F81240B0F850200C7892B24A
:100B6C0002EBC4020C8904326408640045F812409C
:100B7C004A780C78002A47D130F82420550408D53F
:100B8C0030F82420134043F4404343F0800320F812
:100B9C0024300A7830F822305C060BD530F822303D
:100BAC0023F0F0031B051B0D43F4004343F0C0037B
:100BBC0020F822300A7830F8223023F0F0031B059D
:100BCC001B0D43F4004343F0C00320F8223048F2DD
:100BDC0080020C7830F8243023F4804323F0700327
:100BEC001B041B0C83F44053134320F82430097866
:100BFC0030F8213023F4E04323F040031B041B0C9A
:100C0C00134320F8213024E730F82420520408D56F
:100C1C0030F82420134043F4404343F0800320F881
:100C2C0024300A7830F822305B060BD530F82230AD
:100C3C0023F0F0031B051B0D43F4004343F0C003EA
:100C4C0020F822300A7830F8223023F0F0031B050C
:100C5C001B0D43F4404343F0800320F8223048F24C
:100C6C0080020C7830F8243023F4E04323F0400366
:100C7C001B041B0C134320F82430097830F8213066
:100C8C0023F4804323F07003B8E700BF0080FFFF1C
:100C9C0010B58C7A4A780B78CCBB02B330F8232091
:100CAC0052060BD530F8232022F0F0021205120D5B
:100CBC0042F4004242F0C00220F823200A7830F8B7
:100CCC00223023F4E04323F040031B041B0C43F4B9
:100CDC00004343F0800320F82230002010BD30F890
:100CEC00232054040BD530F8232022F0F0021205F7
:100CFC00120D42F4404242F0800220F823200A7880
:100D0C0030F8223023F4804323F07003DDE7002A0F
:100D1C0048D130F8232052040BD530F8232022F090
:100D2C00F0021205120D42F4404242F0800220F80B
:100D3C0023200A7830F822305C060BD530F82230AC
:100D4C0023F0F0031B051B0D43F4004343F0C003D9
:100D5C0020F822300A7830F8223023F0F0031B05FB
:100D6C001B0D43F4004343F0C00320F8223048F23B
:100D7C0080020C7830F8243023F4804323F0700385
:100D8C001B041B0C134320F82430097830F8213055
:100D9C0023F4E04323F040031B041B0C134320F803
:100DAC0021309AE730F8232052040BD530F8232059
:100DBC0022F0F0021205120D42F4404242F0800281
:100DCC0020F823200A7830F822305B060BD530F857
:100DDC00223023F0F0031B051B0D43F4004343F0BA
:100DEC00C00320F822300A7830F8223023F0F003C8
:100DFC001B051B0D43F4404343F0800320F82230C5
:100E0C0048F280020C7830F8243023F4E04323F0CD
:100E1C0040031B041B0C134320F82430097830F8D2
:100E2C00213023F4804323F07003B5E70A788AB9A4
:100E3C00038823F4804323F040031B041B0C83F42E
:100E4C00805383F0100343F4004343F0800303808A
:100E5C00002070474B7883B130F8223023F4E04304
:100E6C0023F040031B041B0C83F0100343F40043DA
:100E7C0043F0800320F82230EAE730F8223023F4E4
:100E8C00804323F070031B041B0C83F48053EDE7A9
:100E9C004B780A7813B330F822305B060BD530F858
:100EAC00223023F0F0031B051B0D43F4004343F0E9
:100EBC00C00320F822300A7830F8223023F4E043C3
:100ECC0023F040031B041B0C83F0300343F400435A
:100EDC0043F0800320F822300020704730F8223095
:100EEC005B040BD530F8223023F0F0031B051B0DEF
:100EFC0043F4404343F0800320F822300A7830F862
:100F0C00223023F4804323F070031B041B0C83F466
:100F1C004053DBE711B98023A0F84C300020704718
:100F2C000020704700207047B0F8440080B2704732
:100F3C000020704710B50024013300F580605B1071
:100F4C0000EB4202A34200D110BD31F8020B22F893
:100F5C0024000134F6E7000070B50E468A69497822
:100F6C00054601293369B07A5ED19A421C469BBF73
:100F7C0000231446D21AB36188BFB261A3B208BB76
:100F8C00B28871692846FFF7D5FFB5F85030327832
:100F9C009BB203EBC20305EB4303C3F80444327862
:100FAC0035F8223023F4E04323F040031B041B0CE0
:100FBC0083F0300343F4004343F0800325F82230E0
:100FCC00002070BD3278284635F82210D20011F07E
:100FDC00400FB5F8501089B20A4405EB4202C2F832
:100FEC000444716914BF3289F288FFF7A3FF737848
:100FFC00327863B935F8223023F0F0031B051B0D52
:10100C0043F4004343F0C00325F82230C7E7012B1B
:10101C00C5D135F8223023F0F0031B051B0D43F42A
:10102C00404343F08003EFE79A4293BF0023D21A68
:10103C00B261B36198BF1346327818BBB5F8501043
:10104C003E2B89B201EBC20101F1060105F580606E
:10105C0049D9C3F34F12DC0604BF02F1FF339AB235
:10106C00264B43EA82239BB240F81130327835F894
:10107C00223023F4804323F070031B041B0C83F4F5
:10108C00405397E7B9B9B5F850103E2B89B201EB34
:10109C00C20101F1020105F580641CD9C3F34F10A4
:1010AC00DA0604BF00F1FF3290B2144A42EA802201
:1010BC0092B244F81120717832780029BED00129FF
:1010CC00D4D1B5F8501089B201EBC20105EB410146
:1010DC00C1F80434CAE7C3F34F02D80744BF013246
:1010EC0092B29202E4E7C3F34F02DB0744BF013232
:1010FC0092B2920292B240F81120B7E70080FFFF43
:10110C0010B50024013300F580605B1000EB420247
:10111C00A34200D110BD52F8240021F81400013470
:10112C00F6E710B5044650B1437903F0FF0213B94A
:10113C00027102F029FE01230020637110BD012011
:10114C0010BD704710B5044630B30368DA68D20797
:10115C0002D5DB689B071FD4637B03F0FF021BB92E
:10116C0022732046FFF7EDFF0223637345F25553BC
:10117C002268616813605368002023F007030B4357
:10118C0053609368A16823F47F6323F00F030B4330
:10119C0093600123637310BD012010BD2DE9F04154
:1011AC0004460E4690461D4600F08EFC0746B8F1EC
:1011BC00000F33D02268936836EA030333D16B1CDB
:1011CC00F9D045B100F080FCC01B8542F2D202E0A0
:1011DC00691C24D0EDB923685A6822F0E0025A60E9
:1011EC001A6822F040021A60A26AB2F5005F07D1B9
:1011FC001A6822F400521A601A6842F400521A60FB
:10120C00012384F851300023032084F85030BDE8CA
:10121C00F08100F059FCC01B8542DCD32268936836
:10122C0036EA0303D4D10020BDE8F08173B504463F
:10123C0090F851001D46C0B2012840F0A38000294F
:10124C005FD0002A5DD094F85030012B00F09A80CA
:10125C00122384F8513000236365E364A364A36311
:10126C00A387E387A36A84F85000B3F5005F21637A
:10127C00A286E286236807D1186820F40050186013
:10128C00186840F400501860A068E668B0F5004F8C
:10129C0002BF186840F480401860186840065EBFB2
:1012AC00186840F0400018606068002E35D108B115
:1012BC00012A05D1481C20630978013AD960E286DD
:1012CC00E38EB3B9A36A0221B3F5005F08BF2268AD
:1012DC00204602BF136843F4805313602B46002250
:1012EC00FFF75CFF002836D0636D43F01003636595
:1012FC0006E02B46002202212046FFF74FFF10B1DB
:10130C00032002B070BD236B2268591C21631B782B
:10131C00D360E38E013BE386D2E708B1012A05D105
:10132C0031F8020B013AD8602163E286E38E002B80
:10133C00C8D02B46002202212046FFF72FFF0028A1
:10134C00DED1236B226833F8021BD1602363E38E5A
:10135C00013BE386EAE72B46012280212046FFF77A
:10136C001DFF0028C0D1A3682BB92368DA6801924D
:10137C009B680193019B012384F85130002384F86E
:10138C005030BEE70220BCE773B504460020ADF830
:10139C00060094F85100069D012804D094F85100E1
:1013AC00222840F03F81002900F03681002A00F00D
:1013BC003381002B00F0308194F85000012800F0AC
:1013CC003181012084F8500094F85100A66A01285C
:1013DC0004BF322084F851000020B6F5005FA263F0
:1013EC006065A387E3872163A386E386A064E0643A
:1013FC00226807D1106820F400501060106840F487
:10140C0000501060106840065EBF106840F040004D
:10141C001060E068B0F5006F60686ED120B1B0F577
:10142C00827F07D1012B05D131F8020B013BD06033
:10143C002163E386E38E002B57D1B6F5005F02BF24
:10144C00136843F4805313602B460022012120467D
:10145C00FFF7A4FED0B92368DA68A36B23F8022B3C
:10146C00A363E38F013BE387A36AB3F5005F40F00E
:10147C00AF802B46002201212046FFF78FFE00286B
:10148C0000F09F80636D43F002036365032002B09C
:10149C0070BD2B46002202212046FFF77FFE00285C
:1014AC00F4D1236B226833F8021BD1602363E38EE3
:1014BC00013B9BB2E3863BB9A36AB3F5005F02BF65
:1014CC00136843F4805313602B46002201212046FD
:1014DC00FFF764FE0028D9D12368DA68A36B23F8E0
:1014EC00022BA363E38F013BE387E38E002BD0D168
:1014FC006268002AB8D12B46A8E720B1B0F5827FEC
:10150C0007D1012B05D1481C20630978013BD16020
:10151C00E386E38E002B41D1B6F5005F08BF13685C
:10152C004FF0010104BF43F48053136020462B4657
:10153C000022FFF733FE0028A8D1A36B2268D268E3
:10154C001A708EE72B46002202212046FFF726FE5A
:10155C0000289BD1236B2268591C21631B78D36014
:10156C00E38E013B9BB2E3863BB9A36AB3F5005F04
:10157C0002BF136843F4805313602B4600220121F1
:10158C002046FFF70BFE002880D1A36B5A1CA263E8
:10159C002268D2681A70E38F013BE387E38E002B3D
:1015AC00D0D16268002A7FF45FAF2B460121204620
:1015BC00FFF7F4FD00287FF469AFA36B5A1CA263FC
:1015CC00BCE72368DB689BB2ADF80630BDF806308B
:1015DC002B46012280212046FFF7E0FD18B1636DF8
:1015EC0043F0100351E70121A36A84F85110B3F5BD
:1015FC00005F13D123689A68D2060FD5626D42F052
:10160C00020262651A6822F400521A601A6842F4E7
:10161C0000521A6084F85000012038E7002384F847
:10162C00503034E7022032E77FB51E460023ADF878
:10163C000E3090F851500446EDB2012D40F0E6808A
:10164C00002962D0002A60D090F85000012800F0E8
:10165C00DD80222084F85100A06884F85050B0F549
:10166C00004F08BF25686365A364E3642363A38606
:10167C00E38608BF2B68A16308BF23F48043A287CD
:10168C00E28708BF2B60A36AB3F5005F08D123681B
:10169C001D6825F400551D601D6845F400551D603E
:1016AC006368B3F5827F0AD148B984F850001346B9
:1016BC0000960A462046FFF767FE054625E023689C
:1016CC001A6852065EBF1A6842F040021A60E3685C
:1016DC003BB3E38F012B27D933460022012120464F
:1016EC00FFF75CFD80B92368DA68A36B23F8022B43
:1016FC00A363E38F013BE387EBE733460022012131
:10170C002046FFF74BFD18B10325284604B070BDE9
:10171C00A36B5A1CA2632268D2681A70E38F013B38
:10172C00E387E38F012BE8D8A36A0121B3F5005FAF
:10173C0008BF2268204602BF136843F4805313602D
:10174C0033460022FFF72AFD05460028DCD1E1686C
:10175C002268A36BB1B9D268591CA1631A70E38FCC
:10176C00013BE387A36AB3F5005F17D13346002230
:10177C0001212046FFF712FD48B1636D43F00203CF
:10178C006365C1E7D26823F8022BA363E7E72368FC
:10179C00DB689BB2ADF80E30BDF80E306368B3F564
:1017AC00827F0BD1A368B3F5004F02D0B3F5806FE5
:1017BC0004D12268136823F040031360012384F8DA
:1017CC005130A36AB3F5005F1CD123689B68DB061C
:1017DC0018D5204600F05AF8012823680FD1626D05
:1017EC0042F0020262651A6822F400521A601A680A
:1017FC0042F400521A60002384F850305DE76FF019
:10180C0010029A60002384F850307EE702257CE7B2
:10181C0010B50446002834D090F851300BB902F0C2
:10182C00C7FA0223216884F851300B68A06823F0B2
:10183C0040030B606368A2690343E06803432069BB
:10184C00034360690343E0690343206A0343A06ACE
:10185C00034302F40070034300200B60120C636A14
:10186C0002F004021A43E36A4A600B61CB6923F469
:10187C000063CB61044B60651870012384F8513010
:10188C0010BD012010BD00BF780100200120704761
:10189C00704703680020DA6842F00102DA601A68C7
:1018AC0042F001021A6070477047704770477047EA
:1018BC00036810B51A69044691070ED5DA689207C9
:1018CC000BD56FF002021A6101229B6902769B070D
:1018DC0077D0FFF7EAFF0023237623681A695007B5
:1018EC0010D5DA6851070DD56FF004021A61022287
:1018FC009B69227613F4407F204668D0FFF7D5FF12
:10190C000023237623681A6912070FD5DA681007AB
:10191C000CD56FF008021A610422DB692276990754
:10192C0020465AD0FFF7C1FF0023237623681A699B
:10193C00D20610D5DA68D0060DD56FF010021A61F8
:10194C000822DB69227613F4407F20464BD0FFF748
:10195C00ACFF0023237623681A69D10708D5DA680F
:10196C00D20705D56FF0010220461A6102F098FBF0
:10197C0023681A69100608D5DA68110605D56FF0C8
:10198C00800220461A6100F084F823681A69520616
:10199C0008D5DA68500605D56FF0400220461A616A
:1019AC00FFF785FF23681A69910622D5DA6892063B
:1019BC001FD56FF020022046BDE810401A6100F0E0
:1019CC0067B8FFF771FF2046FFF770FF83E7FFF75B
:1019DC006BFF2046FFF76AFF92E7FFF765FF204693
:1019EC00FFF764FFA0E7FFF75FFF2046FFF75EFFFE
:1019FC00AFE710BD184A036890420AD0B0F1804F8F
:101A0C0007D0A2F59432904203D002F58062904246
:101A1C0015D14A6823F0700313430F4A90420AD041
:101A2C00B0F1804F07D0A2F59432904203D002F56A
:101A3C008062904203D1CA6823F44073134303605D
:101A4C008B68C3620B688362034B984204BF0B69BB
:101A5C000363012343617047002C014010B5044619
:101A6C00A0B190F8393003F0FF021BB980F8382090
:101A7C00FFF70EFF0223206884F83930211DFFF791
:101A8C00B9FF0123002084F8393010BD012010BDAE
:101A9C0070477047074A08B51368032043F01003DA
:101AAC00136000F027FD002002F0ACF902F026F9DB
:101ABC00002008BD00200240024A13680133136065
:101ACC00704700BF7C010020014B1868704700BFB5
:101ADC007C01002013B50190FFF7F6FF0446FFF7D9
:101AEC00F3FF019B001B9842F9D302B010BD00001C
:101AFC0003682DE9F743DE07054634D42B689C07B1
:101B0C0000F1A7802B681A0723D5AA69BE4C0123C4
:101B1C00BE49002A00F0158193FAA3F2B2FA82F2C0
:101B2C0041F82230FFF7D0FF0226074696FAA6F3BB
:101B3C0096FAA6F3626A96FAA6F3B3FA83F303F065
:101B4C001F0322FA03F3DB0740F1F4800120FFF7B7
:101B5C00C1FF2B68590700F11481EA69002A40F093
:101B6C009381002020E0A84C636803F00C03042B45
:101B7C0007D0636803F00C03082B18D16368D803F3
:101B8C0015D54FF4003393FAA3F2226893FAA3F31A
:101B9C00B3FA83F303F01F0322FA03F3D907ADD58D
:101BAC006B68002BAAD1012003B0BDE8F0836B68F1
:101BBC00B3F5803F1CD1236843F480332360FFF7D7
:101BCC0083FF4FF40036074696FAA6F3226896FA7E
:101BDC00A6F3B3FA83F303F01F0322FA03F3DA0735
:101BEC008CD4FFF771FFC01B6428EDD90320DBE711
:101BFC0003BB23684FF4003623F48033236023683F
:101C0C0023F480232360FFF75FFF074696FAA6F3C1
:101C1C00226896FAA6F3B3FA83F303F01F0322FAB1
:101C2C0003F3DB077FF56AAFFFF74EFFC01B642899
:101C3C00ECD9DBE7B3F5A02F236803D143F4802361
:101C4C002360B8E723F480332360236823F48023D4
:101C5C00B4E76D4C636813F00C0F07D0636803F0A6
:101C6C000C03082B20D16368DF031DD4022393FAE5
:101C7C00A3F2226893FAA3F3B3FA83F303F01F03DE
:101C8C0022FA03F3DE0702D52B69012B8BD12168D5
:101C9C00F82393FAA3F3B3FA83F26B69934021F020
:101CAC00F802134323602DE72A69012302B393FA48
:101CBC00A3F2B2FA82F2920002F1844202F584029B
:101CCC001360FFF701FF0226074696FAA6F3226877
:101CDC0096FAA6F3B3FA83F303F01F0322FA03F385
:101CEC00D807D4D4FFF7F0FEC01B0228EDD97DE74E
:101CFC0093FAA3F3B3FA83F39B0003F1844303F544
:101D0C0084031A60FFF7E0FE0226074696FAA6F354
:101D1C00226896FAA6F3B3FA83F303F01F0322FAB0
:101D2C0003F3D9077FF5EEAEFFF7CEFEC01B0228FA
:101D3C00ECD95BE7FFF7C8FEC01B02287FF6F6AEB6
:101D4C0054E793FAA3F3B3FA83F341F82320FFF794
:101D5C00BBFE0226074696FAA6F396FAA6F3626A2B
:101D6C0096FAA6F3B3FA83F303F01F0322FA03F3F4
:101D7C00D8077FF5EEAEFFF7A7FEC01B0228EAD905
:101D8C0034E7214C224EE36943F08053E361E3696D
:101D9C0003F080530193019B336843F480733360E9
:101DAC00FFF792FE07463368DA0526D5EB68012B60
:101DBC0030D1236A43F001032362FFF785FE02262C
:101DCC008146B04641F2883796FAA6F396FAA6F306
:101DDC00002B55D0226A98FAA8F3B3FA83F303F0D8
:101DEC001F0322FA03F3DB073FF5B7AEFFF76CFED8
:101DFC00A0EB0900B842E7D9F8E6FFF765FEC01B77
:101E0C006428D0D9F2E600BF0010024080044242A0
:101E1C000070004033BB236A022623F001032362C7
:101E2C00236A374623F004032362FFF74DFE41F289
:101E3C008839804696FAA6F396FAA6F313B3226A6B
:101E4C0097FAA7F3B3FA83F303F01F0322FA03F311
:101E5C00D8077FF582AEFFF737FEA0EB08004845A8
:101E6C00E8D9C3E6052B236A03D143F004032362AC
:101E7C009FE723F001032362236A23F004039BE70B
:101E8C00626AA8E7626ADBE7444C636803F00C0300
:101E9C00082B3FF488AE022A4FF0807359D193FA85
:101EAC00A3F3B3FA83F300229B0003F1844303F5FD
:101EBC0084031A60FFF708FE4FF00076074696FA87
:101ECC00A6F3226896FAA6F3B3FA83F303F01F0382
:101EDC0022FA03F3D90736D42B6AB3F5803F05D128
:101EEC006268A96822F400320A4362606268696A17
:101EFC0022F474120B43134363604FF0807393FA14
:101F0C00A3F3B3FA83F301229B0003F1844303F59B
:101F1C0084031A60FFF7D8FD4FF00075064695FA5A
:101F2C00A5F3226895FAA5F3B3FA83F303F01F0324
:101F3C0022FA03F3DA073FF514AEFFF7C5FD801B59
:101F4C000228ECD952E6FFF7BFFDC01B0228B6D918
:101F5C004CE693FAA3F3B3FA83F300229B0003F14C
:101F6C00844303F584031A60FFF7AEFD4FF0007550
:101F7C00064695FAA5F3226895FAA5F3B3FA83F30E
:101F8C0003F01F0322FA03F3DB077FF5EAADFFF73B
:101F9C009BFD801B0228ECD928E600BF00100240F4
:101FAC0030B5204B87B002AC03F1100522461868FF
:101FBC005968083303C2AB421446F7D101238DF89C
:101FCC0004300223184C8DF80530616801F00C03C5
:101FDC00082B24D14FF4701393FAA3F3B3FA83F2C2
:101FEC0001F47013D34006AA134413F8100CCB035E
:101FFC0013D563684FF4003292FAA2F2B2FA82F26D
:10200C0003F40033D34006AA134413F8142C074BE3
:10201C00B3FBF2F3584307B030BD054BFAE7034866
:10202C00F9E700BFDC4200080010024000127A0001
:10203C0000093D00554A2DE9F0411368064603F0AE
:10204C0007038B420D4630D3326894073AD4D0073D
:10205C0040D44E4A136803F007039D42C0F08480BD
:10206C0032684B4C12F0040F40F08980130706D5F0
:10207C006368326923F4605343EAC2036360FFF779
:10208C008FFF6368F02292FAA2F2B2FA82F203F0A6
:10209C00F003D3403F4AD35CD8403F4B186000203C
:1020AC0001F0B0FE0020BDE8F081136823F00703B7
:1020BC000B431360136803F007039942C4D001204B
:1020CC00BDE8F0813249B0684B6823F0F00303435C
:1020DC004B60BCE772682E4C012A28D14FF40033B8
:1020EC0093FAA3F1216893FAA3F3B3FA83F303F001
:1020FC001F0321FA03F3D907E1D5636841F288384D
:10210C0023F003031A436260FFF7DEFC7368074693
:10211C00012B12D1636803F00C03042B99D0FFF749
:10212C00D3FCC01B4045F5D90320BDE8F081022A41
:10213C000CBF4FF000730223D2E7022B0FD1636860
:10214C0003F00C03082B84D0FFF7BEFCC01B4045EA
:10215C00F5D9E9E7FFF7B8FCC01B4045E4D8636844
:10216C0013F00C0FF6D174E7136823F007032B431D
:10217C001360136803F007039D42A0D170E76368F6
:10218C00F16823F4E0630B4363606FE700200240C7
:10219C00001002407144000814010020014B186823
:1021AC00704700BF14010020084B4FF460525B686D
:1021BC0092FAA2F2B2FA82F203F46053D340044AC8
:1021CC00D35C044A1068D840704700BF001002402E
:1021DC0081440008140100200F2303600B4B5A6844
:1021EC0002F0030242605A6802F0F00282605A6800
:1021FC0002F4E062C2605B68DB0803F4E063036135
:10220C00034B1B6803F007030B6070470010024080
:10221C000020024003682DE9F743DC0705461ED574
:10222C003C4C3D4EE36943F08053E361E36903F0BA
:10223C0080530193019B336843F480733360FFF741
:10224C0043FC07463368D8051FD5236A13F4407343
:10225C0024D1236A6A6823F44073134323622868E9
:10226C00830706D52B4AA968536823F440430B43D4
:10227C00536010F010000ED0264AE9685368002015
:10228C0023F480030B43536005E0FFF71DFCC01BD8
:10229C006428D7D9032003B0BDE8F0836A6802F440
:1022AC0040729342D5D0216A4FF4803321F44076AA
:1022BC0093FAA3F20127B2FA82F2184840F822707E
:1022CC0093FAA3F30022B3FA83F3C90740F823204F
:1022DC002662BED5FFF7F8FB02268046374641F250
:1022EC00883996FAA6F396FAA6F38BB1226A97FA76
:1022FC00A7F3B3FA83F303F01F0322FA03F3DA070D
:10230C00A7D4FFF7E1FBA0EB08004845E9D9C1E7EA
:10231C00626AECE700100240007000400004424288
:10232C002DE9F74F00221646654BDFF8A4E1DFF8E4
:10233C00A4C14FF001080C6808FA06F808EA040476
:10234C00A0457FD14D68122D00F0AF8000F288803F
:10235C00022D00F0A7807CD8002D00F08E80012D7E
:10236C0000F09E804FF00F09FF2C93BF824606F1C0
:10237C008045083DD0F800B092BFB500D0F804B04D
:10238C00AD0009FA05F82BEA080802FA05F588BF32
:10239C0000F1040A48EA0505CAF80050D1F804A077
:1023AC001AF0805F4ED0474D464FAD6926F00308BA
:1023BC0045F00105BD61BD6908F1804805F00105D6
:1023CC00019508F5803806F0030B019D4FEA8B0B45
:1023DC00D8F8085009FA0BF925EA09093A4DA84230
:1023EC0068D005F58065A84266D005F58065A842E1
:1023FC0064D005F58065A8420CBF0325042505FAB9
:10240C000BF545EA0905C8F808501D681AF4803F19
:10241C0014BF2543A5431D605D681AF4003F14BF2B
:10242C002543A5435D609D681AF4801F14BF2543A6
:10243C00A5439D60DD681AF4001F14BF2C4325EAE8
:10244C000404DC600136102E7FF473AF03B0BDE8DA
:10245C00F08F032D22D0112D84D1CA68043281E76C
:10246C001A4FBD4209D012D8DFF86C904D4504D0FC
:10247C0009F580394D457FF475AF8A68C2B1012AE0
:10248C000CBFC0F81080C0F8148008226AE77545AC
:10249C00F3D06545F1D0DFF84490EBE7002261E71B
:1024AC00CA685FE7CA6808325CE7CA680C3259E749
:1024BC00042257E70025A2E70125A0E702259EE7A5
:1024CC0000040140001002400008014000002110EF
:1024DC00000031100000321000001110000022101A
:1024EC000AB1016170470904FBE7C3685940C16038
:1024FC0070470000074A0002D36800F4E06023F440
:10250C00E0631B041B0C43F0BF6343F40033034331
:10251C00D360704700ED00E0174B30B5DC68C4F3B6
:10252C000224C4F10703251D042B28BF0423062D08
:10253C004FF0010598BF002405FA03F303F1FF33B4
:10254C0088BF033C1940A14005FA04F4013C224029
:10255C00002842EA01024FEA0212AFBF00F16040CC
:10256C00064B00F00F00D2B2A5BFD2B200F561400D
:10257C001A5480F8002330BD00ED00E014ED00E0AB
:10258C000123420900F01F0003FA00F0014B43F84D
:10259C002200704700E100E00138B0F1807F0AD2E0
:1025AC00F021064B064A586082F8231000200722BF
:1025BC0098601A6070470120704700BF10E000E07F
:1025CC0000ED00E0044B04281A680CBF42F0040232
:1025DC0022F004021A60704710E000E0D0F81832C4
:1025EC001BB10020C3F81402704702207047D0F8CA
:1025FC001C3210B5D0F818425BB194F80002FF28D9
:10260C0007D09B6894F8012221469847FF2384F851
:10261C000032002010BD00004323038000487047A7
:10262C003800002043230380004870477C000020C2
:10263C004323038000487047CC0000200A2303800A
:10264C0000487047C000002038B50546D0F8184245
:10265C0001F0A4FAD5F81832C4F80C024BB1D5F835
:10266C001C3204F50371DB68D4F80402984700208F
:10267C0038BD022038BD0000F8B50F78064617F0BB
:10268C0060030C4623D0202B19D1CA884B78C2B1D9
:10269C003906D0F818520BD5D0F81C1218468F6892
:1026AC002946B84729463046E28800F08AFB06E006
:1026BC0085F8003285F80122294600F097FB0020AE
:1026CC00F8BDD0F81C0284681846A047F7E74B7891
:1026DC000A2BF4D101220149E7E700BF8001002059
:1026EC0010B50446812101F0F5F90121204601F0D5
:1026FC00F1F98221204601F0EDF9D4F8183253B1EA
:10270C00D4F81C325B689847D4F8180201F050FAE0
:10271C000023C4F81832002010BDF8B5037C044621
:10272C007BBB4FF400730222812101F0C3F94FF4FB
:10273C00007302220121204601F0BCF90823032278
:10274C008221204601F0B6F94FF4077001F02CFA03
:10275C000646C4F8180220B30025D4F81C321B68B6
:10276C009847277CC6F81452C6F8185287B94FF40C
:10277C000073D6F804220121204601F001FA3846F4
:10278C00F8BD40230222812101F094F94023D0E7C7
:10279C004023D6F804220121204601F0F1F9284605
:1027AC00F8BD0120F8BD19B1C0F81C12002070470B
:1027BC0002207047D0F818320020C3F80812C3F872
:1027CC0010227047D0F818320020C3F8041270475A
:1027DC00D0F8182210B572B1D2F81442012364B9A2
:1027EC00C2F814328121B2F81032D2F8082201F06A
:1027FC00B9F9204610BD022010BD184610BDD0F806
:10280C00182210B562B1047C44B94FF40073D2F8AD
:10281C000422012101F0B4F9002010BD4023F6E799
:10282C00022010BD08B580B1D0F8143213B10023CA
:10283C00C0F8143209B1C0F810120123027080F8EC
:10284C00FC3101F0E1F8002008BD022008BD19B1EF
:10285C00C0F81412002070470220704708B501F030
:10286C001BF9002008BD08B5D0F814320BB90220B2
:10287C0008BD1B6898470028F9D108BD08B5D0F8E9
:10288C0014325B689847002008BD38B500F5027516
:10289C000446284600F065FA012394F80812C4F89F
:1028AC00F431B4F80E32C4F8F83101F01F03012BE7
:1028BC000ED007D3022B10D001F08001204601F07E
:1028CC0017F903E02946204600F0D6F8002038BD61
:1028DC002946204600F0CAF9F8E72946204600F0C0
:1028EC00DDF9F3E738B50446154611BBD0F8F431E1
:1028FC00032B0FD1D0F80C31D0F8102193420BD907
:10290C009B1A9A4228BF1A46C0F80C3192B229463B
:10291C0000F07BFA002038BDD0F814321B6923B1CB
:10292C0090F8FC21032A00D19847204600F075FA54
:10293C00F0E7D0F814329B69002BEBD090F8FC2117
:10294C00032AE7D19847E5E770B5134604460E46CF
:10295C0000293DD1D0F8F421022A0FD1C569026AB1
:10296C00954214D9AA1AC261194692B200F036FAED
:10297C0033461A461946204601F002F994F8003203
:10298C00012B02D1002384F80032002070BD836932
:10299C00B3FBF2F502FB153565B99A420AD8D0F8AB
:1029AC00F821934206D22A4600F018FAC4F8F851DE
:1029BC002B46DEE7D4F81432DB682BB194F8FC21FB
:1029CC00032A01D120469847204600F031FAD5E77A
:1029DC00D0F814325B69002BD7D090F8FC21032A75
:1029EC00D3D19847D1E7002238B50446402511468B
:1029FC00402301F05FF82B46C4F8105100228021CF
:102A0C00204601F057F8012384F8FC31D4F8183231
:102A1C0025622BB1D4F8143221795B682046984793
:102A2C00002038BD01740020704790F8FC3180F80C
:102A3C00FD31042380F8FC310020704790F8FD3103
:102A4C0080F8FC310020704708B590F8FC21032A6F
:102A5C0004D1D0F81432DB6903B19847002008BDCB
:102A6C0010B50446802101F043F82046BDE8104023
:102A7C00002101F03DB8000037B54B7804460D46F7
:102A8C00092B79D8DFE813F0C900E5007800D900EC
:102A9C0078006D000A007800B9008D004B881A0A86
:102AAC00013A062A68D8DFE802F0041C2967674956
:102ABC005200D0F810321B680DF10601207C9847AB
:102ACC00BDF80620002A67D0EB88002B64D09A4210
:102ADC0028BF1A460146ADF80620204600F071F9D1
:102AEC005AE0027CD0F8143232B99B6A0DF1060020
:102AFC00984702234370E3E7DB6AF7E7DBB2052B69
:102B0C003AD8DFE803F003070B0F1317D0F8103295
:102B1C005B68D1E7D0F810329B68CDE7D0F8103263
:102B2C00DB68C9E7D0F810321B69C5E7D0F8103262
:102B3C005B69C1E7D0F810329B69BDE7037CDBB958
:102B4C00D0F814320DF106005B6B9847B8E7037CA4
:102B5C0093B9D0F814320DF106001B6B984707237C
:102B6C00C8E78B8843B9CB8833B990F8FC318D78A2
:102B7C00032B05F07F0503D12046FFF771FF0BE017
:102B8C0080F8FE51294600F0DFFF204600F045F9A1
:102B9C002DB1022384F8FC31002003B030BD012399
:102BAC00F8E78978304D01292970E5D890F8FC3187
:102BBC00022B0CD0032BDFD1B1B90223416080F87A
:102BCC00FC31FFF75BFE204600F027F9E4E7002913
:102BDC00F9D001210323416080F8FC312046FFF736
:102BEC0042FE0228EFD1C7E741680129EBD0C9B2F8
:102BFC00FFF744FE29786160F0E7CA88012ABBD14F
:102C0C0090F8FC31022B03D0032BB5D1011D64E7E6
:102C1C000146002341F8083F5FE790F8FC31023B86
:102C2C00012BA9D80123C360D0F804320BB10323C4
:102C3C00C360022204F10C014FE74B88012BABD18E
:102C4C00C4F80432D4F8143229469B6820469847BD
:102C5C00B9E790F8FC31023B012B8DD84B88012B46
:102C6C009AD10023ECE700BF8101002038B590F821
:102C7C00FC310446032B0D460DD10B79012B0AD8E0
:102C8C00D0F814329B689847EB8813B9204600F0B3
:102C9C00C4F8002038BDFFF7E3FEFAE770B50A78F8
:102CAC008E8802F06002202A04460D46F3B205D14C
:102CBC00D0F814329B689847002070BD4A78012ADE
:102CCC001CD02AD3032AF7D190F8FC21022A40D039
:102CDC00032A02D0FFF7C4FEEEE74A8822B95E064B
:102CEC0002D0194600F004FFD4F8143229469B6830
:102CFC0020469847204600F090F8DDE790F8FC213C
:102D0C00022A26D0032AE5D14A88002AD4D15906B2
:102D1C00F0D0194600F0FAFEE6E790F8FC21022A02
:102D2C0017D0032AD6D103F07F0516F0800F00EBE5
:102D3C000515194614BF143505F5827500F0F4FE1F
:102D4C0068B101232B6002222946204600F039F895
:102D5C00B2E75A06B0D0194600F0CAFEACE72860BC
:102D6C00F1E70B7803704B784370CA788B7803EBE0
:102D7C00022343804A790B7903EB02238380CA79BF
:102D8C008B7903EB0223C380704730B588B10546BD
:102D9C002B1A15F8014BDBB2002CF9D15B00023376
:102DAC0013800B7003234B700223013810F8015F62
:102DBC0005B930BD5A1CCD54D2B20233DBB28C549F
:102DCC00F4E71346022210B5C0F8F42183610A46D9
:102DDC00C361002100F0C6FE002010BD08B51346EB
:102DEC000A46002100F0BEFE002008BD1346032257
:102DFC0010B5C0F8F421C0F808310A46C0F80C31FF
:102E0C00002100F0BDFE002010BD08B513460A4697
:102E1C00002100F0B5FE002008BD08B50423C0F861
:102E2C00F43100231A46194600F09CFE002008BD20
:102E3C0008B50523C0F8F43100231A46194600F0F2
:102E4C009FFE002008BD000006480068006880F363
:102E5C00088862B661B6BFF34F8FBFF36F8F00DF88
:102E6C0000BF000008ED00E04FF0807300E90A009D
:102E7C00034B40F8202C40F80C3C4038704700BF06
:102E8C00DD2E0008074B19680868B0E8F00F80F3D6
:102E9C000988BFF36F8F4FF0000080F311884EF05C
:102EAC000D0E7047A00D00204FF08052034B1A609E
:102EBC00BFF34F8FBFF36F8F704700BF04ED00E07F
:102ECC00EFF311804FF0500181F31188704700200F
:102EDC0008B5054B1B68013302D0FFF7F1FFFEE785
:102EEC00FFF7EEFFFEE700BF1001002008B5FFF76B
:102EFC00E7FF094A136801331360BFF34F8FBFF329
:102F0C006F8F012B07D1054B1B6813F0FF0F02D0FD
:102F1C00FFF7D6FFFEE708BD1001002004ED00E02E
:102F2C0080F311887047000008B5074B186810B97A
:102F3C00FFF7C6FFFEE70138186018B9BDE8084076
:102F4C00FFF7EEBF08BD00BF10010020EFF30980B2
:102F5C00BFF36F8F0D4B1A6820E9F00F10602DE94D
:102F6C0008404FF0500080F3118800F06FFC4FF0D8
:102F7C00000080F31188BDE8084019680868B0E8C3
:102F8C00F00F80F30988BFF36F8F7047A00D0020FE
:102F9C0008B5FFF795FF00F0FFFA18B14FF080521B
:102FAC00034B1A600020BDE80840FFF7B9BF00BF13
:102FBC0004ED00E04FF47A72054B1B68B3FBF2F39F
:102FCC00044A013B13600722034B1A60704700BF91
:102FDC001401002014E000E010E000E013B51F4BDA
:102FEC0000211A78D2B20192FF221A701B781C4A67
:102FFC00DBB28DF803309DF8033003F050031370EF
:10300C000722184B1A609DF80300541E00061CD4AE
:10301C0001B11A601A68120202F4E0621A60019B94
:10302C000E4ADBB21370104B1A6842F470021A602D
:10303C001A6842F070421A60FFF7BCFF00220B4B7B
:10304C001A60FFF701FFFFF743FF9DF803200121F2
:10305C005200D2B28DF803202246D4E700E400E0FF
:10306C00820100208401002020ED00E010010020EE
:10307C0010B50F4B1A68824218D35C681919884234
:10308C0001BF4168184609195960446801198A4200
:10309C0007D1084909688A421FBF5168126809198B
:1030AC0041609842026018BF186010BD1346E1E7FA
:1030BC00980D0020880100202DE9F041044600F015
:1030CC0063FA3949394D0B680BBB394A56071DBF9A
:1030DC00D01D20F0070002F540634FF440631CBF85
:1030EC0002461B1A00201344324E083B23F0070300
:1030FC0070603260586018600B60981A13602E4B29
:10310C00506018602D4B18604FF000432B602F68F7
:10311C00274216D1002C3CD004F1080358071CBFE1
:10312C0023F00703083363B1244A16689046B34270
:10313C0007D8204A15686868834204D809688D420C
:10314C0007D1002425E02C68002CF7D02A46254610
:10315C00F1E7296814681160C21A102A04F10804F6
:10316C0009D9E818410702D0FFF7AAFEFEE7426032
:10317C006B60FFF77DFF00230F496A680868B61A79
:10318C00864247EA0207C8F8006038BF0E606F60DD
:10319C002B6000F08FFA630702D0FFF791FEFEE779
:1031AC002046BDE8F08100BF880100208C0D002076
:1031BC008C010020980D0020940D0020900D002013
:1031CC0010B5044610B3124A50F8043C126813426E
:1031DC0002D1FFF775FEFEE750F8081C11B1FFF79E
:1031EC006FFEFEE723EA020340F8043C00F0CCF942
:1031FC00084A54F8043C1168A4F108000B4413600D
:10320C00FFF736FFBDE8104000F054BA10BD00BF08
:10321C008C0D0020900D002008B500F085F90020E1
:10322C0008BD70B50025B0F9084086B0842C08BFE5
:10323C002C46028A18BF03340B4690E8420005A8BE
:10324C000190039502950094304600F093F8012804
:10325C0014BF0020059806B070BD08B5002808BF43
:10326C00012000F091FA002008BD08B500F022FB07
:10327C00012803D0BDE80840FFF78ABE08BD00F165
:10328C00080343604FF0FF32C36003610023826088
:10329C000360704700230361704743689A684B6072
:1032AC008A609A6851609960036808610133036011
:1032BC0070470A6830B5531C0AD103695A684A60D2
:1032CC0091608B605960036808610133036030BD05
:1032DC0000F108035C682568AA42EFD32346F9E79E
:1032EC004168826803698A608268516059688842C3
:1032FC0008BF5A60002202611868013818607047D4
:10330C00064A13681968064B19B94FF0FF321A6058
:10331C0070471268D268D2685268F8E7A40D002092
:10332C00780E00200E4B10B51A68044650600D4AFA
:10333C001268904207D2BDE810400B4A1068196819
:10334C000431FFF7B6BF094A106819680431FFF75A
:10335C00B0FF074B1A68944238BF1C6010BD00BF09
:10336C00A00D0020C00E0020A80D0020A40D0020F0
:10337C00780E00202DE9F84F0A9E884617469B468A
:10338C00DDF82C900C9D824610B9FFF799FDFEE7F5
:10339C00062E02D9FFF794FDFEE735B99000FFF732
:1033AC008BFE0546002800F097805420FFF784FE22
:1033BC000446002800F08D8007F18047013F05632B
:1033CC0005EB870508F1FF3325F0070500F1340202
:1033DC0008F10F08597802F8011B13F8011F09B105
:1033EC004345F7D14FF00008271D384684F8438039
:1033FC00E6626664C4F84880FFF74CFF04F11800DD
:10340C00FFF748FFC6F10703C4F84C802461A361A1
:10341C00646284F850805A4651462846FFF724FDD2
:10342C002060B9F1000F01D0C9F80040FFF75EFD34
:10343C00304A314D1368DFF8E490013313602B6888
:10344C00002B4CD12C601268012A22D1984609EB32
:10345C00080008F11408FFF712FFB8F18C0FF6D131
:10346C00DFF8BCA0DFF8BC805046FFF708FF4046F1
:10347C00FFF705FF2148FFF702FF2148FFF7FFFE8A
:10348C002048FFF7FCFE204BC3F800A01F4BC3F8ED
:10349C0000801F4A1F491368086801331360E26AF1
:1034AC00012404FA02F3034314200B6000FB029086
:1034BC003946FFF7F2FEFFF737FD174B1B682BB1B0
:1034CC002B68DB6A9E4201D9FFF7EEFC2046BDE873
:1034DC00F88F2846FFF774FE4FF0FF34F6E70E4BDB
:1034EC001B68002BD5D12B68DB6A9E4228BF2C6051
:1034FC00CFE700BF380E0020A00D0020800E00206A
:10350C00AC0E0020980E0020A40D0020A80D002069
:10351C00440E00204C0E0020940E0020AC0D002018
:10352C00500E0020640E002030B5002485B00394AA
:10353C00029401940094234680220E490E48FFF712
:10354C0019FF012805460ED1FFF7BAFC4FF0FF32E8
:10355C000A4B1A600A4B1D600A4B1C6005B0BDE893
:10356C003040FFF73BBD10B9FFF7AAFCFEE705B0F2
:10357C0030BD00BF6C440008F5370008780E002001
:10358C00940E0020C00E0020024A13680133136011
:10359C00704700BF400E00202DE9F84F3A4B1B68D6
:1035AC00002B4ED1394B1A6801321A601D688DB947
:1035BC00374B1A68126812B1FFF782FCFEE7354AE6
:1035CC001968106818601160334A1368013313606E
:1035DC00FFF796FE314C4FF0000B2368304F9D42A5
:1035EC003ED3DFF8AC80DFF8C890D8F80020126822
:1035FC0072BB4FF0FF32226032E006F1040A5046F3
:10360C00FFF76EFEB16A19B106F11800FFF768FEFC
:10361C0001224FF0140EF06AD9F8003002FA00F1D2
:10362C001943204BC9F800100EFB00305146FFF730
:10363C0034FE3868F16AC26A914228BF4FF0010B20
:10364C00D3E7194A4FF0000B13680133136011E0F4
:10365C00D8F80020D268D66871688D42CDD221602E
:10366C003A68104BD16A14224A439A58022A28BF4E
:10367C004FF0010B0D4A1268002A18BF4FF0010BD6
:10368C005846BDE8F88F00BF400E0020C00E002049
:10369C00A40D0020A80D00207C0E0020780E002028
:1036AC00A00D0020AC0D00203C0E0020C40E00200C
:1036BC004C0E00202DE9F8432B4C236813B9FFF76F
:1036CC00FFFBFEE7FFF712FC2368013B2360236836
:1036DC002BB10024FFF728FC2046BDE8F883234BD0
:1036EC001B68002BF5D0224D224E1FE0EB68012702
:1036FC00DC6804F1040904F11800FFF7F1FD4846F9
:10370C00FFF7EEFD1420E26A316807FA02F30B436F
:10371C0000FB028049463360FFF7BFFD164BE26A9F
:10372C001B68DB6A9A4203D3144B1F60DFF854808A
:10373C002B68002BDAD1124C23688BB90F4B1C6809
:10374C00012CC6D1FFF7B0FBC4E7FFF725FF00B192
:10375C002E602368013B23602368002BF5D1EDE735
:10376C00064D0126F8E700BF400E0020380E002061
:10377C00800E00204C0E0020A00D0020C40E002056
:10378C003C0E0020AC0D002038B518B9BDE838400F
:10379C00FFF78ABB104B1B6813B1FFF791FBFEE7D9
:1037AC00FFF7F2FE0D4B0E4D1C68044428680430E4
:1037BC00FFF796FD40B92A680A49D06A01220B68C6
:1037CC00824023EA02030B602046FFF7ABFDFFF7B4
:1037DC0071FF0028DAD038BD400E0020C00E00204A
:1037EC00A00D00204C0E002008B5144E144C23687C
:1037FC0033B9144B1B68012BF8D9FFF755FBF5E7D0
:10380C00FFF7C2FE3568FFF755FF002DEFD0FFF72D
:10381C006DFBF368DD68281DFFF762FD0A4A13682B
:10382C00013B13602368013B2360FFF77DFB286B92
:10383C00FFF7C6FC2846FFF7C3FCD8E7AC0E002008
:10384C00480E0020AC0D0020380E0020144B10B593
:10385C001A68144B12B101221A6010BD1A60124B77
:10386C001B68B3FA83F31422DBB2C3F11F035A4370
:10387C000E498C58881814B9FFF722FBFEE74468F0
:10388C00083264680A44944208BF6268446008BF06
:10389C004260142202FB03135B68DA68044BDBE71B
:1038AC00400E0020C40E00204C0E0020AC0D002059
:1038BC00A00D0020054B1B6833B1054B1B68002B7A
:1038CC000CBF02200020704701207047940E00208E
:1038DC00400E00200F4B1A6842F001021A60596822
:1038EC000D4A0A405A601A6822F0847222F480321F
:1038FC001A601A6822F480221A605A6822F4FE02B6
:10390C005A604FF41F029A604FF00062034B9A60AA
:10391C00704700BF001002400000FFF800ED00E00F
:10392C0010B5094C002209492046FEF77BFF0849D7
:10393C002046FEF78CFF20460649FEF734FF204652
:10394C00BDE81040FEF78ABFF410002018010020DB
:10395C00000000204C01002007B50D4B02689A4274
:10396C0012D103F5DA33DA69142042F40002DA6179
:10397C00DB69002203F4000301930521019BFEF790
:10398C00CBFD1420FEF7FCFD03B05DF804FB00BF7B
:10399C00005C004000F57B71D0F81C04FEF775BF8D
:1039AC0000EB4113D3F81C22D0F81C04FEF79ABF8D
:1039BC0000EB4113DA6BD0F81C04FEF7C5BFD0F84E
:1039CC001C04FFF741B810B504460121D0F81C04C3
:1039DC00FFF728F8D4F81C04BDE81040FFF703B833
:1039EC0010B50446D0F81C04FFF71FF8A36923B1E7
:1039FC00024A136943F00603136110BD00ED00E0A9
:103A0C00D0F81C04FFF71AB810B5022308224FF0A7
:103A1C00030E04461D491E4880E80E400023C0F8E2
:103A2C001C44C4F820028361C3610362FCF79EFB53
:103A3C0020B14FF48D71174800F03CFB0022182385
:103A4C001146D4F82002FCF767FF5823002280218E
:103A5C00D4F82002FCF760FFC02300228121D4F8A7
:103A6C002002FCF759FF4FF4887300220121D4F88F
:103A7C002002FCF751FF4FF4807300228221D4F80E
:103A8C002002FCF749FF002010BD00BF005C004085
:103A9C00181300208D44000808B5D0F82002FCF75C
:103AAC00CEFB03289ABF024B185C022008BD00BF56
:103ABC008944000810B51C46D0F820021346224653
:103ACC00FCF7E8FB03289ABF014B185C022010BDE1
:103ADC008944000808B5D0F82002FCF7FEFB032847
:103AEC009ABF024B185C022008BD00BF8944000835
:103AFC0008B5D0F82002FCF7C3FE03289ABF024B8E
:103B0C00185C022008BD00BF8944000808B5D0F835
:103B1C002002FCF7DEFE03289ABF024B185C022041
:103B2C0008BD00BF894400080A06D0F8203245BF02
:103B3C0001F07F0103EB411303EB411393F82A00CF
:103B4C0058BF93F80A02704708B5D0F82002FCF76A
:103B5C008DFB03289ABF024B185C022008BD00BFE6
:103B6C008944000808B5D0F82002FCF702FC0328B1
:103B7C009ABF024B185C022008BD00BF89440008A4
:103B8C0008B5D0F82002FCF7C9FB03289ABF024BFA
:103B9C00185C022008BD00BF8944000808B5D0F8A5
:103BAC002002FCF7DFFB08BD00487047C80E002060
:103BBC0070477047122301480B8070473401002076
:103BCC00042301480B8070474801002010B5044CB9
:103BDC000A4604482146FFF7D8F8204610BD00BF1E
:103BEC0038170020B644000810B5044C0A460448A7
:103BFC002146FFF7CAF8204610BD00BF3817002039
:103C0C00C944000810B5044C0A4604482146FFF785
:103C1C00BCF8204610BD00BF38170020DF44000858
:103C2C0010B5044C0A4604482146FFF7AEF820466E
:103C3C0010BD00BF381700209D44000810B5044C7F
:103C4C000A4604482146FFF7A0F8204610BD00BFE5
:103C5C0038170020A8440008002070470020704747
:103C6C0010B5054C01462046FEF7ACFD2046FEF78C
:103C7C00C6FD002010BD00BFF410002010B5064C8E
:103C8C00002206492046FEF795FD05492046FEF721
:103C9C0099FD002010BD00BFF41000203C1900203D
:103CAC003819002038B50A4C0A46D4F81852D5F801
:103CBC0014325BB901462046FEF77CFD2046FEF728
:103CCC0087FDD5F81432002BFBD138BD012038BD4F
:103CDC00F41000207047FEE7FEE7FEE7FEE77047B2
:103CEC00FFF7C3BA0148FCF765BB00BF18130020EF
:103CFC000148FDF7DDBD00BF40190020204B07B582
:103D0C009A69032042F001029A619B6903F0010356
:103D1C000193019BFEF7EEFB00226FF00B001146A6
:103D2C00FEF7FAFB00226FF00A001146FEF7F4FBD7
:103D3C0000226FF009001146FEF7EEFB00226FF037
:103D4C0004001146FEF7E8FB00226FF00300114659
:103D5C00FEF7E2FB00220F216FF00100FEF7DCFB07
:103D6C0000220F214FF0FF30FEF7D6FB054A5368B7
:103D7C0023F0E06343F00073536003B05DF804FB81
:103D8C0000100240000001400268084B82B09A42C9
:103D9C000AD1A3F500535A6942F040025A615B699B
:103DAC0003F040030193019B02B0704700300240C6
:103DBC007FB50268114B9A421DD103F560439A6995
:103DCC0002A942F480529A619B690D4803F4805316
:103DDC000193019BA02302930223039303230593D6
:103DEC00FEF79EFA40230293002302A90448039392
:103DFC000493FEF795FA07B05DF804FB0030014020
:103E0C000008014010B5014688B000221920FEF7C9
:103E1C0083FB1920FEF7B4FB144B01A99A6903A884
:103E2C0042F400629A619B69114C03F400630293A3
:103E3C00029BFEF7D1F9FEF7B7F90E4B236040F267
:103E4C00E733E3600C4BB0FBF3F000230138606008
:103E5C0020462361A360FDF701FE20B92046FDF743
:103E6C0018FD08B010BD0120FBE700BF0010024098
:103E7C0040190020002C014040420F0000B591B0C9
:103E8C00FFF74EFD02220F490F4800F075F90F4C59
:103E9C004FF47A70FFF7E1F94FF400512046FEF72A
:103EAC0024FB00214022684600F0FDF940216846C1
:103EBC0000F082F90028EBD040216846FFF7F2FEB3
:103ECC00E6E700BF000C01409819002000100140EB
:103EDC00092370B594B00A934FF4803301240B93EB
:103EEC000022022612934FF480130AA80C920E940F
:103EFC00109411961393FDF7FBFD00B1FEE70F250F
:103F0C004FF4806307900990214605A80595069605
:103F1C000893FEF78FF800B1FEE7102301934FF4DE
:103F2C00800301A80493FEF775F9044600B1FEE77F
:103F3C00FEF734F94FF47A73B0FBF3F0FEF72CFB79
:103F4C000420FEF73FFB224629464FF0FF30FEF7D8
:103F5C00E3FA14B070BD000000B58BB0FDF79AFD0C
:103F6C00FFF7B6FF424B4FF400519A69414842F0BB
:103F7C0010029A619A69012402F010020192019ACE
:103F8C009A69022542F020029A619A6902F0200295
:103F9C000292029A9A6942F004029A619A6902F0BA
:103FAC0004020392039A9A6942F008029A619B698F
:103FBC00002203F008030493049BFEF791FA0022FD
:103FCC0002212D48FEF78CFA4FF4005305A929481D
:103FDC00059306940895FEF7A3F9284B05A92648E6
:103FEC00069305940794FEF79BF9234805A90595BC
:103FFC0006940895FEF794F92148224B0360FDF7CF
:10400C0090F800B1FEE7204B204A58601A6040F649
:10401C00FF7218469A60FDF795F800B1FEE74FF471
:10402C0082721B4B1B49986083E806004FF40072A8
:10403C009A611022DA610A22D860186158611862FC
:10404C00586298621846DA62FDF7E2FB064600B148
:10405C00FEE7114D05AC0FCD0FC42B68314605A8FA
:10406C002360FFF7DEF80D4B1860FFF7D5F8FEE77D
:10407C000010024000100140000C01400000211013
:10408C0090190020003002408019002000300040C0
:10409C009819002000300140EC4200087C190020E7
:1040AC000268034B9A4201D1FDF706BD704700BF71
:1040BC00002C0140FEE700002DE9F8430646DFF82E
:1040CC0074801A4F0D469146B8F8001000223868DB
:1040DC001C46FEF705FA16B345B11548AAB24FF4C3
:1040EC00FA7331460068FDF7A1F80546B9F1000FE7
:1040FC0017D044B10E48A2B24FF4FA734946006887
:10410C00FDF792FA04460122B8F800103868FEF761
:10411C00E7F945B9B4FA84F04009BDE8F8833546AF
:10412C00E4E74C46EFE70020BDE8F883EC100020F4
:10413C00F0100020E810002073B50A244425002656
:10414C0001230DF10702194601A88DF804508DF8D2
:10415C000760FFF7B1FF18B19DF80730FF2B02D0B5
:10416C0014F1FF3404D2201C18BF012002B070BD22
:10417C000A20FFF772F8E3E710B54FF4B6740A4B58
:10418C00DCB01860094B01A81960094B09491A8069
:10419C00224600F07DF8002321461A4601A8FFF7BD
:1041AC008BFF5CB010BD00BFF0100020EC100020A5
:1041BC00E8100020004300080E4B37B51B6805467D
:1041CC000C4613B9002003B030BD0B4B1B68002B01
:1041DC00F8D04B1E3F2BF5D8FFF7AEFF0028F1D0DF
:1041EC00772302A800F8043D2A4623460121FFF755
:1041FC0063FFE8E7F0100020EC100020002103E042
:10420C000B4B5B58435004310A480B4B42189A42F3
:10421C00F6D30A4A02E0002342F8043B084B9A42C8
:10422C00F9D3FFF757FB00F00FF8FFF795FE704737
:10423C0000450008000000205C0100205C0100200B
:10424C00F0190020FEE7000070B500250C4E0D4C57
:10425C00A41BA410A54209D100F02EF800250A4E8B
:10426C000A4CA41BA410A54205D170BD56F82530EC
:10427C0098470135EEE756F8253098470135F2E7B7
:10428C00F8440008F8440008F8440008FC4400080E
:10429C0010B5431E0A44914200D110BD11F8014BD8
:1042AC0003F8014FF7E703460244934200D17047ED
:1042BC0003F8011BF9E70000F8B500BFF8BC08BC17
:1042CC009E467047F8B500BFF8BC08BC9E467047C8
:1042DC0002030405060708090A0B0C0D0E0F10103B
:1042EC00EC440008893E00080000000000000000BB
:1042FC008000000007020100018CBA800813000046
:10430C00000000000006110002005200051100011F
:10431C0003600611010200011008110204000000E4
:10432C0000000D111009000814000F3100000000EE
:10433C00091111050001B42B00000B1112070084A8
:10434C000108FFFF00021011120C080000003030B1
:10435C00000704800000001011120C140000000073
:10436C0000000000000000001011120C20000000E2
:10437C000000000000000000000D1112092C0000CC
:10438C00000000000000001011200C0002000701CA
:10439C0086A0018CBA800006051120010C4D0C1171
:1043AC0020081801800803800020200D112009220C
:1043BC00014501934C00CA02C20B1120072C043694
:1043CC0080220F50800511200135E20D1120093893
:1043DC001147470002FFFF002A0D11200942A402D9
:1043EC00D683014D0180FF051120014C00051120E1
:1043FC00014E4005112001510A1011210C00CCA1D5
:10440C0030A021D1B9C9EA0512111011210C0C0AE6
:10441C000415FC0300CCA130A021D11011210C18E3
:10442C00B9C9EA0512110A0415FC0300081122048B
:10443C0000087F003D0B112307002C0E0B040C739E
:10444C00031011300C000000000000000000000000
:10445C0000000C11400800410CEC4E4EC520FE0033
:10446C0049444C450000000000000000000102031C
:10447C000406070809000000000102030400020101
:10448C00025372632F757362645F636F6E662E6383
:10449C000043444320436F6E6669670043444320E6
:1044AC00496E746572666163650053544D6963723D
:1044BC006F656C656374726F6E6963730053544DF2
:1044CC003332205669727475616C20436F6D506F76
:1044DC007274003030303030303030303031410098
:0C44EC0064656661756C745461736B004C
:0444F8003101000886
:0444FC000D010008A6
:1045000027270008ED260008852600080000000087
:10451000FB250008E92500085526000800000000DA
:1045200000000000000000003126000825260008D9
:104530003D2600084926000809024300020100C088
:1045400032090400000102020100052400100105E7
:10455000240100010424020205240600010705824B
:104560000308001009040100020A00000007050109
:1045700002400000070581024000000009024300DC
:10458000020100C0320904000001020201000524FA
:104590000010010524010001042402020524060084
:1045A000010705820308001009040100020A000047
:1045B0000007050102000200070581020002000059
:1045C0000A06000200000040010000000907430045
:1045D000020104C0320904000001020201000524A6
:1045E0000010010524010001042402020524060034
:1045F00001070582030800FF09040100020A000008
:10460000000705010240000007058102400000008C
:10461000AAAAAAAA00A24A04C13B0008CD3B0008EE
:10462000D93B0008F53B0008113C00082D3C000870
:10463000493C000812010002020200408304405776
:10464000000201020301000004030904893C000880
:0C465000653C0008693C00086D3C000857
:0400000508004209A4
:00000001FF
